S012000053616D706C6550726A312E7372656353
S11300000C945A000C9464000C9464000C946400E6
S11300100C9464000C9464000C9464000C946400CC
S11300200C9464000C9464000C9464000C946400BC
S11300300C9464000C9464000C9464000C946400AC
S11300400C9464000C9464000C9464000C9464009C
S11300500C9464000C9464000C9464000C9464008C
S11300600C9464000C9464000C9464000C9464007C
S11300700C9464000C9464000C9464000C9464006C
S11300800C9464000C9464000C9464000C9464005C
S11300900C9464000C9464000C9464000C9464004C
S11300A00C9464000C9464000C9464000C9464003C
S11300B00C94640011241FBECFEFD8E0DEBFCDBF87
S11300C00E9408010C9487040C940000CF93DF93E2
S11300D0CDB7DEB70E9468040000DF91CF91089588
S11300E0CF93DF931F92CDB7DEB7898383E290E08D
S11300F0FC018081282F30E08981482F50E081E085
S113010090E002C0880F991F4A95E2F78223932357
S113011021E0892B09F420E0822F0F90DF91CF9109
S11301200895CF93DF9300D0CDB7DEB789836A8378
S11301308A818823A9F08BE290E02BE230E0F90178
S11301402081622F2981422F50E021E030E002C05B
S1130150220F331F4A95E2F7262BFC01208315C09A
S11301608BE290E02BE230E0F9012081622F2981BB
S1130170422F50E021E030E002C0220F331F4A95A5
S1130180E2F720952623FC01208300000F900F90B6
S1130190DF91CF910895CF93DF931F92CDB7DEB750
S11301A0898389E290E02981422F50E021E030E008
S11301B002C0220F331F4A95E2F7FC01208300009E
S11301C00F90DF91CF910895CF93DF93CDB7DEB732
S11301D087E00E947000DF91CF910895CF93DF9361
S11301E01F92CDB7DEB78983698187E00E949100B1
S11301F000000F90DF91CF910895CF93DF93CDB797
S1130200DEB787E00E94CB000000DF91CF91089514
S1130210CF93DF93CDB7DEB70E9426010E9466001C
S11302200E94260181E00E94EE000E94410180E0CC
S11302300E94EE000E9441010E94E400982F81E098
S11302408927882379F30E94FD00ECCFCF93DF93B5
S113025000D000D0CDB7DEB71A82198205C08981DB
S11302609A8101969A83898389819A8180329E44F6
S1130270B4F300000F900F900F900F90DF91CF9187
S11302800895BF93AF93A0E0B0E000000000000029
S1130290000000000000000000000000000000005A
S11302A0000000000000000000000000000000004A
S11302B0000000000000000000000000000000003A
S11302C0000000000000B395BA3FF9F6A395AA3FD9
S11302D0D9F6AF91BF910895CF93DF9300D0CDB7F6
S11302E0DEB789836A838A81813051F584E290E0A4
S11302F024E230E0F9012081622F2981422F50E06D
S113030021E030E002C0220F331F4A95E2F7209526
S11303102623FC01208385E290E025E230E0F90108
S11303202081622F2981422F50E021E030E002C079
S1130330220F331F4A95E2F7262BFC01208318C0B5
S11303408A818823A9F485E290E025E230E0F9016E
S11303502081622F2981422F50E021E030E002C049
S1130360220F331F4A95E2F720952623FC012083B0
S113037000000F900F90DF91CF910895CF93DF93FA
S113038000D0CDB7DEB789836A838A81882F90E055
S11303908130910599F082309105D9F0892B09F0CB
S11303A02FC084E290E024E230E0F9012081322F72
S11303B0298120952323FC01208322C084E290E03C
S11303C024E230E0F90130812981232BFC012083D0
S11303D017C084E290E024E230E0F9012081322F5A
S11303E0298120952323FC01208385E290E025E2E6
S11303F030E0F90130812981232BFC0120830000A6
S113040000000F900F90DF91CF910895CF93DF9369
S113041000D0CDB7DEB789836A838A81882F90E0C4
S113042081309105E1F08230910571F1892B09F059
S113043055C084E290E024E230E0F9012081622F8B
S11304402981422F50E021E030E002C0220F331F07
S11304504A95E2F720952623FC0120833FC084E2DD
S113046090E024E230E0F9012081622F2981422FBB
S113047050E021E030E002C0220F331F4A95E2F73A
S1130480262BFC0120832AC084E290E024E230E0A1
S1130490F9012081622F2981422F50E021E030E0D0
S11304A002C0220F331F4A95E2F720952623FC0150
S11304B0208385E290E025E230E0F9012081622F7B
S11304C02981422F50E021E030E002C0220F331F87
S11304D04A95E2F7262BFC012083000000000F90D0
S11304E00F90DF91CF910895CF93DF9300D0CDB7D4
S11304F0DEB789836A838A81882F90E081309105F1
S113050099F082309105D9F0892B09F02FC087E248
S113051090E027E230E0F9012081322F29812095F3
S11305202323FC01208322C087E290E027E230E00D
S1130530F90130812981232BFC01208317C087E234
S113054090E027E230E0F9012081322F29812095C3
S11305502323FC01208388E290E028E230E0F901C3
S113056030812981232BFC012083000000000F909F
S11305700F90DF91CF910895CF93DF9300D0CDB743
S1130580DEB789836A838A81882F90E08130910560
S113059099F082309105D9F0892B09F02FC08AE2B5
S11305A090E02AE230E0F9012081322F2981209560
S11305B02323FC01208322C08AE290E02AE230E077
S11305C0F90130812981232BFC01208317C08AE2A1
S11305D090E02AE230E0F9012081322F2981209530
S11305E02323FC0120838BE290E02BE230E0F9012D
S11305F030812981232BFC012083000000000F900F
S11306000F90DF91CF910895CF93DF9300D0CDB7B2
S1130610DEB789836A838A81882F90E081309105CF
S1130620E1F08230910571F1892B09F055C08AE21D
S113063090E02AE230E0F9012081622F2981422FE3
S113064050E021E030E002C0220F331F4A95E2F768
S113065020952623FC0120833FC08AE290E02AE211
S113066030E0F9012081622F2981422F50E021E0FE
S113067030E002C0220F331F4A95E2F7262BFC011B
S113068020832AC08AE290E02AE230E0F901208146
S1130690622F2981422F50E021E030E002C0220F76
S11306A0331F4A95E2F720952623FC0120838BE231
S11306B090E02BE230E0F9012081622F2981422F62
S11306C050E021E030E002C0220F331F4A95E2F7E8
S11306D0262BFC012083000000000F900F90DF9177
S11306E0CF910895CF93DF9300D0CDB7DEB7898340
S11306F06A838A818823A9F08BE290E02BE230E0C0
S1130700F9012081622F2981422F50E021E030E05D
S113071002C0220F331F4A95E2F7262BFC012083E7
S113072015C08BE290E02BE230E0F9012081622FCA
S11307302981422F50E021E030E002C0220F331F14
S11307404A95E2F720952623FC01208300000F90B0
S11307500F90DF91CF910895CF93DF9300D0CDB761
S1130760DEB789836A838A81882F90E0813091057E
S113077099F082309105D9F0892B09F02FC08DE2D0
S113078090E02DE230E0F9012081322F298120957B
S11307902323FC01208322C08DE290E02DE230E08F
S11307A0F90130812981232BFC01208317C08DE2BC
S11307B090E02DE230E0F9012081322F298120954B
S11307C02323FC0120838EE290E02EE230E0F90145
S11307D030812981232BFC012083000000000F902D
S11307E00F90DF91CF910895CF93DF931F92CDB7F0
S11307F0DEB78983698187E00E946C0100000F9055
S1130800DF91CF910895CF93DF931F92CDB7DEB7D9
S11308108983698187E00E94060200000F90DF91BE
S1130820CF910895CF93DF931F92CDB7DEB789831D
S1130830698187E00E94040300000F90DF91CF914B
S11308400895CF93DF931F92CDB7DEB78983698173
S113085087E00E94720300000F90DF91CF9108950A
S1130860CF93DF93CDB7DEB740E060E881E690E058
S11308700E94800483E590E0FC01108285E590E00D
S1130880FC01108280E0DF91CF910895CF93DF9334
S1130890CDB7DEB785E690E02DE3FC01208384E646
S11308A090E02FEFFC01208362E08FEF0E94BE01F5
S11308B062E08FE70E94740262E08FEF0E94BC0244
S11308C062E08FE00E94AC030000DF91CF910895B5
S11308D0CF93DF93CDB7DEB70E94460480E00E9439
S11308E0030480E00E94F40381E00E94120480E08B
S11308F00E9421040E9430040000DF91CF910895EA
S11309002FB7F894FC01608340832FBF0895F894B7
S1050910FFCF13
S9030000FC
