:100000000C945A000C9464000C9464000C946400EA
:100010000C9464000C9464000C9464000C946400D0
:100020000C9464000C9464000C9464000C946400C0
:100030000C9464000C9464000C9464000C946400B0
:100040000C9464000C9464000C9464000C946400A0
:100050000C9464000C9464000C9464000C94640090
:100060000C9464000C9464000C9464000C94640080
:100070000C9464000C9464000C9464000C94640070
:100080000C9464000C9464000C9464000C94640060
:100090000C9464000C9464000C9464000C94640050
:1000A0000C9464000C9464000C9464000C94640040
:1000B0000C94640011241FBECFEFD8E0DEBFCDBF8B
:1000C0000E94B9000C9420030C940000CF93DF939E
:1000D000CDB7DEB70E9407030000DF91CF910895EE
:1000E000CF93DF9300D0CDB7DEB789836A838A814F
:1000F0008823A9F08BE290E02BE230E0F901208127
:10010000622F2981422F50E021E030E002C0220F0F
:10011000331F4A95E2F7262BFC01208315C08BE2A2
:1001200090E02BE230E0F9012081622F2981422FFB
:1001300050E021E030E002C0220F331F4A95E2F781
:1001400020952623FC01208300000F900F90DF9163
:10015000CF910895CF93DF931F92CDB7DEB78983F8
:10016000698187E00E94700000000F90DF91CF91BD
:100170000895CF93DF93CDB7DEB70E94CE000E94E3
:1001800066000E94CE0081E00E94AA000E94CE007C
:1001900080E00E94AA000E94CE00F5CFCF93DF93AB
:1001A00000D000D0CDB7DEB71A82198205C0898190
:1001B0009A8101969A83898389819A8180329E44AB
:1001C000B4F300000F900F900F900F90DF91CF913C
:1001D0000895CF93DF9300D0CDB7DEB789836A83CC
:1001E0008A81882F90E08130910599F082309105C5
:1001F000D9F0892B09F02FC084E290E024E230E0AE
:10020000F9012081322F298120952323FC012083AD
:1002100022C084E290E024E230E0F90130812981BB
:10022000232BFC01208317C084E290E024E230E01D
:10023000F9012081322F298120952323FC0120837D
:1002400085E290E025E230E0F90130812981232B1D
:10025000FC012083000000000F900F90DF91CF91F0
:100260000895CF93DF9300D0CDB7DEB789836A833B
:100270008A81882F90E08130910599F08230910534
:10028000D9F0892B09F02FC087E290E027E230E017
:10029000F9012081322F298120952323FC0120831D
:1002A00022C087E290E027E230E0F9013081298125
:1002B000232BFC01208317C087E290E027E230E087
:1002C000F9012081322F298120952323FC012083ED
:1002D00088E290E028E230E0F90130812981232B87
:1002E000FC012083000000000F900F90DF91CF9160
:1002F0000895CF93DF9300D0CDB7DEB789836A83AB
:100300008A81882F90E08130910599F082309105A3
:10031000D9F0892B09F02FC08AE290E02AE230E080
:10032000F9012081322F298120952323FC0120838C
:1003300022C08AE290E02AE230E0F901308129818E
:10034000232BFC01208317C08AE290E02AE230E0F0
:10035000F9012081322F298120952323FC0120835C
:100360008BE290E02BE230E0F90130812981232BF0
:10037000FC012083000000000F900F90DF91CF91CF
:100380000895CF93DF9300D0CDB7DEB789836A831A
:100390008A81882F90E081309105E1F082309105CB
:1003A00071F1892B09F055C08AE290E02AE230E031
:1003B000F9012081622F2981422F50E021E030E0B5
:1003C00002C0220F331F4A95E2F720952623FC0135
:1003D00020833FC08AE290E02AE230E0F9012081E8
:1003E000622F2981422F50E021E030E002C0220F2D
:1003F000331F4A95E2F7262BFC0120832AC08AE2AC
:1004000090E02AE230E0F9012081622F2981422F19
:1004100050E021E030E002C0220F331F4A95E2F79E
:1004200020952623FC0120838BE290E02BE230E034
:10043000F9012081622F2981422F50E021E030E034
:1004400002C0220F331F4A95E2F7262BFC012083BE
:10045000000000000F900F90DF91CF910895CF938F
:10046000DF9300D0CDB7DEB789836A838A81882382
:10047000A9F08BE290E02BE230E0F9012081622FBD
:100480002981422F50E021E030E002C0220F331FCB
:100490004A95E2F7262BFC01208315C08BE290E001
:1004A0002BE230E0F9012081622F2981422F50E0B8
:1004B00021E030E002C0220F331F4A95E2F7209579
:1004C0002623FC01208300000F900F90DF91CF9135
:1004D0000895CF93DF9300D0CDB7DEB789836A83C9
:1004E0008A81882F90E08130910599F082309105C2
:1004F000D9F0892B09F02FC08DE290E02DE230E099
:10050000F9012081322F298120952323FC012083AA
:1005100022C08DE290E02DE230E0F90130812981A6
:10052000232BFC01208317C08DE290E02DE230E008
:10053000F9012081322F298120952323FC0120837A
:100540008EE290E02EE230E0F90130812981232B08
:10055000FC012083000000000F900F90DF91CF91ED
:100560000895CF93DF931F92CDB7DEB7898369815A
:1005700087E00E94C10100000F90DF91CF910895A4
:10058000CF93DF931F92CDB7DEB78983698187E070
:100590000E942F0200000F90DF91CF910895CF931A
:1005A000DF93CDB7DEB740E060E881E690E00E94DF
:1005B000190383E590E0FC01108285E590E0FC01E1
:1005C000108280E0DF91CF910895CF93DF93CDB774
:1005D000DEB785E690E02DE3FC01208384E690E021
:1005E0002FEFFC01208362E08FEF0E94E90062E0C0
:1005F0008FE70E94310162E08FEF0E94790162E093
:100600008FE00E9469020000DF91CF910895CF939F
:10061000DF93CDB7DEB70E94E50281E00E94B10210
:1006200080E00E94C0020E94CF020000DF91CF91C3
:1006300008952FB7F894FC01608340832FBF08957D
:04064000F894FFCF5C
:00000001FF
